:020000040800F2
:10000000A8260220C5010008CD010008CF01000884
:10001000D1010008D3010008D5010008000000004C
:10002000000000000000000000000000D7010008F0
:10003000D901000800000000DB0100088DA40008C1
:10004000DF010008DF010008DF010008DF01000810
:10005000DF010008DF010008DF010008DF01000800
:10006000DF010008DF010008DF0100084D0E000875
:10007000590E0008810E0008D10E0008F90E000884
:10008000DF010008DF010008DF010008BD0C0008E7
:10009000B10C0008DF010008DF010008A72E0008EE
:1000A000DF010008DF010008DF010008DF010008B0
:1000B000DF01000849A50008DF010008DF01000892
:1000C000DF010008DF010008DF010008DF01000890
:1000D000DF010008DF010008DF010008D5AE0008DD
:1000E000DF010008DF010008DF010008DF01000870
:1000F000DF010008DF010008DF010008DF01000860
:10010000DF010008DF010008DF010008DF0100084F
:1001100039A60008DF010008DF010008DF01000840
:10012000490F0008710F0008C10F0008DF01000827
:10013000CD0F0008DF010008DF010008DF01000823
:10014000DF010008DF010008DF010008DF0100080F
:10015000DF010008DF010008DF010008DF010008FF
:10016000DF010008DF010008DF010008DF010008EF
:10017000DF010008DF010008DF01000800000000C7
:10018000DF010008DF010008DF010008DF010008CF
:10019000DF010008DF010008D50C0008C90C0008C9
:1001A000DF010008DF010008DF010008DFF810D0E0
:1001B00000F008FC0048004741580108AFF30080F8
:1001C000A82602200648804706480047FEE7FEE7CB
:1001D000FEE7FEE7FEE7FEE7FEE7FEE7FEE7FEE7F7
:1001E00005A50008AD0100082DE9F05F05460020D7
:1001F00092469B4688460646814640241BE0284698
:1002000041464746224600F00EFB53465A46C01A66
:10021000914110D311461846224600F0F5FA2D1AE6
:1002200067EB01084F4622460120002100F0ECFA5E
:1002300017EB00094E41201EA4F10104DFDC484603
:1002400031462A46434600F000B830BCBDE8C09FA6
:100250002DE9F0410024061B254671F1000605DA60
:1002600001240027D0EB070067EB0101161E73F194
:10027000000605DA0027D2EB0702012567EB03032E
:10028000FFF7B2FF86460E4617469C46AC4204D0A6
:100290000025D0EB050E65EB010624B10020D2EB62
:1002A000000760EB030C704631463A466346BDE8F2
:1002B000F08140EA01039B0703D009E008C9121F3F
:1002C00008C0042AFAD203E011F8013B00F8013B10
:1002D000521EF9D27047D2B201E000F8012B491E3C
:1002E000FBD270470022F6E710B513460A460446D3
:1002F0001946FFF7F0FF204610BD421E12F8013FDD
:10030000002BFBD111F8013B02F8013B002BF9D186
:100310007047421C10F8011B0029FBD1801A70475E
:1003200030B504460020034600E05B1C934203D234
:10033000E05CCD5C401BF8D030BD034611F8012BCA
:1003400000F8012B002AF9D1184670472DE9FE4F1D
:10035000804681EA0300C00F0C46009021F0004166
:1003600023F00045B8EB0200A94105D240462146E2
:1003700090461C460B46024623F00040104347D0EF
:10038000270DC7F30A00C3F30A510290401A0190E7
:1003900040286BDAC3F3130040F4801B00989246A8
:1003A00020B10023D2EB030A63EB0B0B01985946F3
:1003B000C0F14002504600F027FA06460D4650466E
:1003C0005946019A00F03FFA10EB08006141002401
:1003D00087EA115284EAE7731A4340D0009A62B365
:1003E000019A012A4FEA075215DC001B61EB02015A
:1003F0004FF0004202EA0752CDE90042001C41F5ED
:10040000801132462B4600F076FA03B000F045B872
:1004100040462146F9E7001B61EB0201001C41F553
:10042000801300185B412018A2F5001747EB030169
:1004300040EAD570B6196D4111E06D084FEA3606F5
:1004400045EAC0754FEA0752001B61EB0201001C30
:1004500041F5801149084FEA3000001951413246F8
:100460002B4603B000F01CB800F036BA0098012209
:1004700040000023D0EB020263EBE07300982146BA
:100480004FEAE074B8EB000061EB0401E9E783F0A8
:1004900000435BE781F0004158E730BCBDE8C08F06
:1004A00030BCBDE8C04FFFF7DFBF2DE9FE4F81EA4A
:1004B000030404F0004421F0004100944FF0000BCD
:1004C00023F0004350EA01045ED052EA03045BD0FB
:1004D000C3F30A54C1F30A552C44A4F2F334019433
:1004E000A0FB0254C1F3130141F48011C3F31303C1
:1004F00043F4801301FB024400FB034E840A970A75
:1005000044EA815447EA8357A4FB076802958D0AA1
:1005100005FB07854FEA932C04FB0C542705029D2D
:100520004FEA065847EA1637B5EB08056EEB070C9D
:10053000870E920E47EA811742EA8312A7FB020157
:10054000B6EB0B0164EB00042B0D43EA0C335E1891
:1005500044EB1C50DA465146E7FB0201C5F3130495
:100560004FEA0B3343EA14534FEA0432019C43EA47
:100570000603A4F10C040294009CCDE900B400F041
:10058000BAF903B000F003B800200146F9E730BC27
:10059000BDE8C08F2DE9F04D81EA030404F0004B63
:1005A00021F0004514464FF0000A23F0004150EAC4
:1005B000050220D054EA01021DD0C5F30A570246B5
:1005C000C5F31303C1F31300C1F30A5640F48015B9
:1005D00043F48013A7EB0608101BD64608F2FD383B
:1005E00073EB050002D308F1010801E092185B41AA
:1005F000B8F1000F03DA00200146BDE8F08D0020BD
:100600004FF48011064684460EE0171B73EB050776
:1006100005D3121B63EB050306434CEA010C4908A2
:100620004FEA300092185B4150EA0107EDD152EADF
:10063000030012D082EA040083EA0501084305D0D2
:10064000101BAB4106D20122002306E000224FF02E
:10065000004302E06FF0010253101AEB06004CEB6E
:10066000085110EB0A0041EB0B01BDE8F04D00F022
:1006700033B90EB5C10F80EAE0700844CA07002103
:1006800040F233438DE80E000A460B4600F033F982
:1006900003B000BD0EB540F2334102910021CDE917
:1006A00000110A460B4600F026F903B000BD70B5F4
:1006B000C1F30A5201F000450024C1F3130140F2D6
:1006C000FF3341F480119A4201DA002070BD40F2FC
:1006D00033439A42A2F2334203DC524200F0A3F8C1
:1006E00000E090402C43F1D0404270BDC1F30A526B
:1006F00010B5C1F3130140F2FF3341F480119A4267
:1007000001DA002010BD40F233439A42A2F2334294
:1007100003DC524200F087F810BD904010BD00F09D
:10072000004230F000400AD0C10D01F56071C0F305
:10073000160042EA0151C2084007114370470020E9
:100740000146704730B5041E71F1000404DB4FF020
:100750000044404264EB0101141E73F1000405DB08
:100760001C464FF00043524263EB04038B4208BF28
:10077000824230BD30B5041E71F1000404DB4FF03D
:100780000044404264EB0101141E73F1000405DBD8
:100790001C464FF00043524263EB0403994208BFEA
:1007A000904230BD01F0004330B421F0004150EAE6
:1007B000010206D00A0DA2F56072C1F31301002AEE
:1007C00002DC30BC00207047440F44EAC104C10081
:1007D000E01830BC00EBC25000F047B830B50B4613
:1007E000014600202022012409E021FA02F59D4261
:1007F00005D303FA02F5491B04FA02F52844151E35
:10080000A2F10102F1DC30BD202A04DB203A00FA1B
:1008100002F1002070479140C2F1200320FA03F357
:10082000194390407047202A04DB203A21FA02F055
:100830000021704721FA02F3D040C2F1200291401A
:10084000084319467047202A06DBCB17203A41FAA5
:1008500002F043EAE07306E041FA02F3D040C2F14D
:10086000200291400843194670470029A8BF7047ED
:10087000401C490008BF20F00100704710B4B0FAD6
:1008800080FC00FA0CF050EA010404BF10BC704771
:1008900049B1CCF1200421FA04F411FA0CF118BF8B
:1008A000012121430843A3EB0C01CB1D4FEA00615A
:1008B0004FEA102042BF002010BC704700EBC3502D
:1008C00010440029A4BF10BC7047401C490008BF59
:1008D00020F0010010BC704710B5141E73F1000425
:1008E00008DA401C41F1000192185B411A4301D122
:1008F00020F0010010BD2DE9F04D92469B4611B14C
:10090000B1FA81F202E0B0FA80F220329046FFF7AD
:100910007BFF04460F4640EA0A0041EA0B015346BA
:100920005A46084313D0114653EA010019D0C8F1C2
:1009300040025046FFF777FF05460E46504659469F
:100940004246FFF761FF084305D0012004E020463E
:100950003946BDE8F08D0020054346EAE0762C4399
:1009600037430A986305E40AA0EB08000022FD0A59
:1009700044EA47540A3002D500200146E9E7010560
:1009800010196941DDE9084500196941BDE8F04DDC
:10099000A2E7C1F30A52C1F3130140F2FF3341F45D
:1009A00080119A4202DA00200146704740F2334338
:1009B0009A42A2F2334202DC5242FFF734BFFFF701
:1009C00023BF0000064C074D06E0E06840F001033D
:1009D00094E8070098471034AC42F6D3FFF7EAFBDF
:1009E000909F0108B09F010870B58C1810F8015B4A
:1009F00015F0070301D110F8013B2A1106D110F8B8
:100A0000012B03E010F8016B01F8016B5B1EF9D1BB
:100A10002B0705D40023521E0DD401F8013BFAE741
:100A200010F8013BCB1A921C03E013F8015B01F8AC
:100A3000015B521EF9D5A142D8D3002070BD10B57C
:100A4000846AA16D11F0500F06D0A16DC90630D592
:100A5000204603F06EF810BDA06D40F40070A06554
:100A600020680168090712D508F0C0F9E8B12068CC
:100A7000C068800419D4A06D20F48070A065A06DBA
:100A8000C00412D4A06D40F00100A0650DE0C06864
:100A900080070AD4A06D20F48070A065A06DC0040A
:100AA00003D4A06D40F00100A065204603F03DF89E
:100AB00010BD216D496BBDE81040084710B5806A34
:100AC000816D41F040018165C16D41F00401C16556
:100AD00003F02FF810BD10B5806A03F028F810BDA0
:100AE00070B5044620688168C1F3400508F072F9CA
:100AF00078B375BB2068816801F00D01012909D028
:100B0000A06D40F01000A065E06D40F00100E065D0
:100B1000012070BD8168124A1140891C81602168E2
:100B20000320086004F0B2FA054613E004F0AEFAC0
:100B3000401B02280ED920688068C0070AD0A06D2B
:100B400040F01000A065E06D40F00100E06501207C
:100B500070BD03E020688068C007E7D10020F7E798
:100B6000C0FFFF7F70B50446206808F033F9A0BBD2
:100B7000206881681D4A114209D0A06D40F0100024
:100B8000A065E06D40F00100E065012070BD816866
:100B9000164E7F3E3140491C816004F077FA0546CD
:100BA0001CE008F017F920B9206881683140491C21
:100BB000816004F06BFA401B02280FD9206800689E
:100BC000C043C0070AD0A06D40F01000A065E06DE2
:100BD00040F00100E065012070BD04E0206801687C
:100BE000C943C907DDD10020F6E700003F000080BF
:100BF00010B5002813D10A480A4902780A704278D1
:100C00004A7082788A70C078C870A1F1080462685E
:100C1000002A04D00421034890470020606010BDE2
:100C200084C50020B004002070B586B00446164884
:100C3000002C20D0C16C41F00201C164C06C00F0F6
:100C400002000090114D35F814000190012002902F
:100C500000200390022004900D4E01A956F82400B4
:100C600004F02AF935F8141056F82400002204F094
:100C700006FA06B070BDC16C41F00401C164C06CDD
:100C800000F004000090DDE700100240EA9B01083C
:100C9000D80200200449054A31F8101052F820000B
:100CA000012204F0ECB90000EA9B0108D802002000
:100CB000014803F0E3BA0000F0BF0020014803F050
:100CC000DDBA0000F0BF0020014803F0D7BA0000F1
:100CD00038C00020014803F0D1BA000038C000201D
:100CE0002DE9F04F85B0142229496846FFF7E1FA53
:100CF00014F08CF8064642F210794FF47A753446B7
:100D00000027DFF890B02FE0204602F03BFB804642
:100D1000204602F0B3FBBBF872104143BBF87000F1
:100D2000B1FBF0FA0EF0B6FB002800DA404200FBFF
:100D30000AF01949B0FBF1F0B0F5803F01D34FF64E
:100D4000FF7080B280450CD3A8EB000080B2BBF8E6
:100D50005611814203D1204605B000F01FB805D9D5
:100D6000264604EB050084B24C45CDD370191FFA1A
:100D700080F97F1C3DF8175035B1701984B2FFB26D
:100D80000A2FF1D32046E7E7012CFBD10024F9E735
:100D9000B0950108A8070020A086010030BCBDE87E
:100DA000C08F000010B5FFF775FC41EC100B9FEDF4
:100DB000081B51EC100B53EC112BFFF776FB41ECA9
:100DC000100B51EC100BFFF791FC80B210BD00002E
:100DD00000000040D769C83F10B5FFF75BFC41EC4D
:100DE000100B9FED081B51EC100B53EC112BFFF770
:100DF0005CFB41EC100B51EC100BFFF777FC80B261
:100E000010BD0000000000C01188C33F1CB505499B
:100E1000D1E91201044A0023FFF71AFACDE90001D3
:100E200000981CBDA807002000A493D61CB5054956
:100E3000D1E91401044A0023FFF70AFACDE90001C1
:100E400000981CBDA807002000A493D6014803F019
:100E50005FBD0000C0C0002010B5074803F058FD7A
:100E6000054890F82500012805D1BDE81040012172
:100E7000024817F041BB10BDD4C300203CC5002080
:100E800010B5104803F044FD0E4890F825000128E5
:100E900017D10D48007801280CD0002811D10A483C
:100EA0001030028809480168BDE81040A0F5407084
:100EB00005F05CBD05480121BDE81040243817F05D
:100EC0001BBB10BD8CC300209004002060C5002017
:100ED00010B5084803F01CFD064890F825000128CD
:100EE00006D104480121BDE81040E43017F004BBEE
:100EF00010BD000064C4002010B5104803F008FDC8
:100F00000E4890F82500012817D10D484078012897
:100F10000CD0002811D10A48103042880948416895
:100F2000BDE81040A0F5277005F020BD054801215F
:100F3000BDE81040183817F0DFBA10BD1CC40020FF
:100F40009004002060C5002010B5084803F0E0FCC4
:100F5000064890F82500012806D104480121BDE883
:100F60001040603017F0C8BA10BD0000F4C4002073
:100F700010B5114803F0CCFC0F4890F8250001286B
:100F800018D10E48807801280DD0002812D10B48C6
:100F9000103082880848B4308168BDE81040A0F560
:100FA0000E7005F0E3BC04480121BDE81040A830F4
:100FB00017F0A2BA10BD0000ACC4002090040020BD
:100FC0000148C06E03F0A4BC18BC00200148006FAB
:100FD00003F09EBC18BC002030B590F8444004F0EB
:100FE0001C050124AC40056C6C6004686360836878
:100FF000102B04D0036899600068C26030BD03689C
:101000009A600068C16030BD70B506463088C0F394
:101010000905002406EB44004179807901EB0020AA
:1010200081B228466D1CADB213F0D8FF641CE4B247
:10103000042CEFD370BD000030B599B00446607940
:10104000A17900EB01252078294613F0CDFF207807
:1010500029460EF0FDF903462A4604A168460AF027
:101060002DFE68460FF060FA19B030BD6164633A36
:1010700025642049203D2025640000000188C1F33B
:10108000090100290ED0012919D14179027A01EB19
:101090000261C2798079120402EB00200144012030
:1010A00006F086BF4179027A01EB0261C27980794C
:1010B000120402EB00200144002006F079BF7047C3
:1010C0004079704710B504462088C0F30900012814
:1010D00015D002282FD1082217A1601DFFF720F993
:1010E00010B3082217A1601DFFF71AF9002822D1BA
:1010F0000EF018FBBDE8104015A00FF015BA07223E
:1011000017A1601DFFF70CF950B1072216A1601D51
:10111000FFF706F900280ED1BDE810400EF00ABB1B
:10112000BDE810400EF016BB0EF00CFBBDE8104001
:101130000FA00FF0F9B910BD456E746572456E676A
:101140000000000045786974456E674D000000009E
:101150004578697420456E672E204D6F64650000E8
:10116000456E53696D754D00457853696D754D0039
:10117000456E74657220456E672E204D6F64650064
:101180002DE9F04107463888C0F3090500240A4ECE
:101190003819407908F0CAF881B2306880F400400C
:1011A000306028466D1CADB213F028FF641CE4B219
:1011B000082CEDD3BDE8F081140C004870B506464C
:1011C0003088C0F30905002406EB4400417980799A
:1011D00001EB002081B228466D1CADB213F00EFF6A
:1011E000641CE4B2042CEFD370BD000010B50446BB
:1011F0000EF0CAFA00285BD02088C0F30900062848
:1012000056D2DFE800F0550315253545607938B131
:10121000012007F04DF8BDE8104026A00FF084B97A
:10122000002007F045F8BDE8104025A00FF07CB97C
:10123000607930B113F072FFBDE8104024A00FF0C8
:1012400073B913F063FFBDE8104025A00FF06CB92F
:10125000607930B113F052FFBDE8104025A00FF0C7
:1012600063B913F043FFBDE8104026A00FF05CB94E
:10127000607930B113F062FFBDE8104026A00FF096
:1012800053B913F053FFBDE8104027A00FF04CB93D
:10129000607930B113F022FFBDE8104026A00FF0B6
:1012A00043B913F013FFBDE8104027A00FF03CB97D
:1012B00010BD000050732052656C6179204F6E00A4
:1012C00050732052656C6179204F66660000000003
:1012D00050204D61696E2052656C6179204F6E001F
:1012E00050204D61696E2052656C6179204F6666B1
:1012F000000000004E204D61696E2052656C6179DE
:10130000204F6E004E204D61696E2052656C6179F0
:10131000204F6666000000005072652052656C61C7
:1013200079204F6E000000005072652052656C619C
:1013300079204F666600000046414E2052656C6180
:1013400079204F6E0000000046414E2052656C61CE
:1013500079204F66660000000188C1F30901002969
:101360000ED0012919D14179027A01EB0261C279CB
:101370008079120402EB00200144012013F056BED4
:101380004179027A01EB0261C2798079120402EBA1
:1013900000200144002013F049BE704730B599B0D9
:1013A00004466079A17900EB01252078294613F0E5
:1013B00033FE207829460FF03FFA03462A4604A15F
:1013C00068460AF07BFC68460FF0AEF819B030BDF5
:1013D0006164633A25642056203D202564000000A6
:1013E00030B400210D4C10E054F822505A680368C4
:1013F00015401A40954206D101EB410104EB8101F1
:10140000896830BC0847491CC9B201EB410204EBB2
:1014100082039D68002DE7D130BC7047049A010813
:1014200070B506460024104D16E055F821005168AD
:1014300032680840114088420CD130460EF088FDD9
:1014400040B104EB440005EB800081683046BDE804
:1014500070400847641CE4B204EB440105EB8102D0
:1014600090680028E1D170BDE096010830B40021F9
:101470000D4C10E054F822505A68036815401A4089
:10148000954206D101EB410104EB8101896830BC32
:101490000847491CC9B201EB410204EB82039D6875
:1014A000002DE7D130BC70473899010870B5064669
:1014B0000024104D16E055F82100516832680840AC
:1014C000114088420CD130460EF042FD40B104EB91
:1014D000440005EB800081683046BDE87040084755
:1014E000641CE4B204EB440105EB8102906800281F
:1014F000E1D170BD8099010810B504462068C0F3A1
:10150000864013F0CBFE002810D02068C0F387215E
:1015100039B1491E1E2909D82046BDE8104011F0F6
:10152000EDB82046BDE8104011F0F6B810BD00003F
:1015300010B588B004462068C0F3872001280FD07A
:1015400013F076FE00282FD00EF012F9174941EA69
:101550008040049000208DF814006079D0B120E024
:101560000EF006F9124941EA8040049003208DF8FC
:10157000140060798DF81500607990B968460CF018
:10158000D3FF9DF800008DF816009DF804008DF83B
:10159000170006E0A0790090E079019068460DF010
:1015A00039FA04A80EF0BAFF08B010BD32000006E8
:1015B0003204000610B588B004462068C0F38720C6
:1015C000012828D013F034FE002822D00EF0D0F8E5
:1015D000274941EA8040049000208DF8140060798A
:1015E000A17900EB01200090E079217A00EB012045
:1015F0000190607AA17A00EB01200290E07A217BD1
:1016000000EB0120039068460DF010FA04A80EF0DC
:1016100085FF08B010BD0EF0ABF8164941EA8040D6
:10162000049008208DF8140068460CF087FF9DF8A0
:1016300000008DF815009DF801008DF816009DF84A
:1016400004008DF817009DF805008DF818009DF82E
:1016500008008DF819009DF809008DF81A009DF812
:101660000C008DF81B009DF80D008DF81C00CDE7D7
:10167000810000068104000610B588B00446206889
:10168000C0F38720012828D013F0D2FD002822D0F3
:101690000EF06EF8274941EA8040049000208DF852
:1016A00014006079A17900EB01200090E079217AA3
:1016B00000EB01200190607AA17A00EB01200290FA
:1016C000E07A217B00EB0120039068460DF0BCF925
:1016D00004A80EF023FF08B010BD0EF049F816491B
:1016E00041EA8040049008208DF8140068460CF010
:1016F00031FF9DF800008DF815009DF801008DF870
:1017000016009DF804008DF817009DF805008DF86F
:1017100018009DF808008DF819009DF809008DF853
:101720001A009DF80C008DF81B009DF80D008DF837
:101730001C00CDE7820000068204000610B588B0C8
:1017400004462068C0F3872001281CD013F070FDE8
:10175000002816D00EF00CF8194941EA8040049098
:1017600000208DF8140060790090A0790190E07954
:101770000290207A039068460DF074F904A80EF0E8
:10178000CDFE08B010BD0DF0F3FF0E4941EA8040D8
:10179000049004208DF8140068460CF0E7FE9DF8D4
:1017A00000008DF815009DF804008DF816009DF8D6
:1017B00008008DF817009DF80C008DF81800DDE783
:1017C000800000068004000610B588B0044620683A
:1017D000C0F38720012828D013F02AFD002822D04A
:1017E0000DF0C6FF274941EA8040049000208DF8A3
:1017F00014006079A17900EB01200090E079217A52
:1018000000EB01200190607AA17A00EB01200290A8
:10181000E07A217B00EB0120039068460DF030F95F
:1018200004A80EF07BFE08B010BD0DF0A1FF164914
:1018300041EA8040049008208DF8140068460CF0BE
:10184000A1FE9DF800008DF815009DF801008DF8AF
:1018500016009DF804008DF817009DF805008DF81E
:1018600018009DF808008DF819009DF809008DF802
:101870001A009DF80C008DF81B009DF80D008DF8E6
:101880001C00CDE7830000068304000610B588B075
:1018900004462068C0F38720012823D013F0C8FC39
:1018A00000281DD00DF064FF234941EA80400490D8
:1018B00000208DF81400A079E17900EB0120009060
:1018C000207A0190607AA17A00EB01200290E07A00
:1018D0000390607969460DF0F1F804A80EF01EFE41
:1018E00008B010BD0DF044FF144941EA8040049057
:1018F00007208DF8140060798DF81500607969462D
:101900000CF066FE9DF800008DF816009DF80100B1
:101910008DF817009DF804008DF818009DF8080058
:101920008DF819009DF809008DF81A009DF80C003B
:101930008DF81B00D1E7000068000006680400066F
:1019400010B588B004462068C0F3872001281DD058
:1019500013F06EFC002817D00DF00AFF1C4941EA75
:101960008040049000208DF81400A0790090E07968
:101970000190207A0290607A0390607969460DF0B8
:10198000B1F804A80EF0CAFD08B010BD0DF0F0FECD
:10199000104941EA8040049005208DF814006079D8
:1019A0008DF81500607969460CF024FE9DF8000062
:1019B0008DF816009DF804008DF817009DF80800BA
:1019C0008DF818009DF80C008DF81900D9E700007B
:1019D000620000066204000610B5A0B0044620684C
:1019E000C0F38720012827D013F022FC002821D043
:1019F0000DF0BEFE274941EA80401C9000208DF882
:101A00007400E01D01F08EFB1B9004F10A0001F050
:101A100089FB1A90A1796479034620461B9A0BF042
:101A2000EFFADDE91A321CA101A80AF047F91CA857
:101A30000EF074FD20B010BD0DF09AFE1A4941EA77
:101A400080401C9008208DF87400A17960791AAB51
:101A50001BAA0BF0ADFA60798DF87500A0798DF8AE
:101A600076009DF86C008DF877009DF86D008DF87C
:101A700078009DF86E008DF879009DF868008DF86B
:101A80007A009DF869008DF87B009DF86A008DF85A
:101A90007C00CCE7920000065772204375727220DA
:101AA00025642025640000009204000610B588B06B
:101AB00004462068C0F3872001281DD013F0B8FB2E
:101AC000002817D00DF054FE1C4941EA80400490D4
:101AD00000208DF81400A0790090E0790190207A20
:101AE0000290607A0390607969460DF015F804A8B9
:101AF0000EF014FD08B010BD0DF03AFE104941EA99
:101B00008040049005208DF8140060798DF8150050
:101B1000607969460CF09EFD9DF800008DF8160076
:101B20009DF804008DF817009DF808008DF8180046
:101B30009DF80C008DF81900D9E70000630000063D
:101B40006304000610B586B004462068C0F3872001
:101B500001281ED013F06CFB002818D00DF008FEF1
:101B60001A4941EA8040029000208DF80C0060790B
:101B7000217AA27900EB0160E179090401EB0221ED
:101B8000084401900CF0FCFF02A80EF0C7FC06B060
:101B900010BD0DF0EDFD0E4941EA80400290042099
:101BA0008DF80C000CF08CFD01909DF804008DF870
:101BB0000D009DF805008DF80E009DF806008DF8CB
:101BC0000F009DF807008DF81000DDE724000006E7
:101BD0002404000610B588B004462068C0F38720AE
:101BE000012823D013F024FB00281DD00DF0C0FDE8
:101BF000234941EA8040049000208DF81400A07928
:101C0000E17900EB01200090207A0190607AA17ABE
:101C100000EB01200290E07A0390607969460CF0B5
:101C2000B5FF04A80EF07AFC08B010BD0DF0A0FDC1
:101C3000144941EA8040049007208DF8140060792F
:101C40008DF81500607969460CF040FD9DF80000A4
:101C50008DF816009DF801008DF817009DF804001E
:101C60008DF818009DF808008DF819009DF80900FE
:101C70008DF81A009DF80C008DF81B00D1E70000CC
:101C8000670000066704000610B588B004462068A7
:101C9000C0F3872001281DD013F0CAFA002817D0FE
:101CA0000DF066FD1C4941EA8040049000208DF84B
:101CB0001400A0790090E0790190207A0290607A77
:101CC0000390607969460CF075FF04A80EF026FCBD
:101CD00008B010BD0DF04CFD104941EA8040049061
:101CE00005208DF8140060798DF81500607969463B
:101CF0000CF0FEFC9DF800008DF816009DF8040025
:101D00008DF817009DF808008DF818009DF80C005C
:101D10008DF81900D9E7000064000006640400068D
:101D200010B588B004462068C0F3872001281DD074
:101D300013F07EFA002817D00DF01AFD1C4941EA75
:101D40008040049000208DF81400A0790090E07984
:101D50000190207A0290607A0390607969460CF0D5
:101D60003DFF04A80EF0DAFB08B010BD0DF000FD39
:101D7000104941EA8040049005208DF814006079F4
:101D80008DF81500607969460CF0DCFC9DF80000C8
:101D90008DF816009DF804008DF817009DF80800D6
:101DA0008DF818009DF80C008DF81900D9E7000097
:101DB000660000066604000610B588B00446206878
:101DC000C0F3872001281DD013F032FA002817D065
:101DD0000DF0CEFC1C4941EA8040049000208DF8B3
:101DE0001400A0790090E0790190207A0290607A46
:101DF0000390607969460CF005FF04A80EF08EFB95
:101E000008B010BD0DF0B4FC104941EA80400490C8
:101E100005208DF8140060798DF815006079694609
:101E20000CF0A2FC9DF800008DF816009DF804004F
:101E30008DF817009DF808008DF818009DF80C002B
:101E40008DF81900D9E7000065000006650400065A
:101E500010B588B004462068C0F3872001281ED042
:101E600013F0E6F9002818D00DF082FC1A4941EA77
:101E70008040049000208DF814006079A17900EB77
:101E800001200090E079217A00EB01200190684662
:101E90000CF0CCFE04A80EF041FB08B010BD0DF014
:101EA00067FC0E4941EA8040049004208DF814003C
:101EB00068460CF083FC9DF800008DF815009DF835
:101EC00001008DF816009DF804008DF817009DF8AC
:101ED00005008DF81800DDE729000006290400063A
:101EE00010B588B004462068C0F38720012820D0B0
:101EF00013F09EF900281AD00DF03AFC1D4941EA72
:101F00008040049000208DF814006079A17900EBE6
:101F100001200090E079217A00EB01200190607AA5
:101F2000029068460CF08CFE04A80EF0F7FA08B098
:101F300010BD0DF01DFC104941EA804004900520C1
:101F40008DF8140068460CF041FC9DF800008DF8F7
:101F500015009DF801008DF816009DF804008DF81D
:101F600017009DF805008DF818009DF808008DF801
:101F70001900D9E728000006280400061FB50068EC
:101F8000C0F38720012810D013F052F900280BD09D
:101F90000DF0EEFB144941EA8040009000208DF8DE
:101FA000040068460EF0BAFA1FBD0DF0E1FB0F49C0
:101FB00041EA8040009007208DF8040020208DF831
:101FC000080021208DF8070010208DF8060026203B
:101FD0008DF8050017218DF80B1057218DF80A1088
:101FE0008DF80900DDE70000030000060304000689
:101FF00000B585B00068C0F38720012811D013F028
:1020000017F900280BD00DF0B3FB124941EA8040CC
:10201000019000208DF8080001A80EF07FFA05B0AD
:1020200000BD0DF0A5FB0C4941EA80400190032062
:102030008DF808000CF0D4FB00909DF800008DF89E
:1020400009009DF801008DF80A009DF802008DF846
:102050000B00E1E7020000060204000610B586B09E
:1020600004462068C0F38720012818D013F0E0F858
:10207000002812D00DF07CFB134941EA8040029009
:1020800000208DF80C006079A17900EB012001900F
:102090000CF0E2FD02A80EF041FA06B010BD0DF002
:1020A00067FB0A4941EA8040029002208DF80C004B
:1020B0000CF098FB01909DF804008DF80D009DF840
:1020C00005008DF80E00E5E701000006010400069A
:1020D00010B588B004462068C0F38720012818D0C6
:1020E00013F0A6F8002812D00DF042FB134941EA84
:1020F0008040049000208DF8140060790090A07951
:10210000019068460CF0AEFD04A80EF007FA08B086
:1021100010BD0DF02DFB0A4941EA804004900220D9
:102120008DF8140068460CF063FB9DF800008DF8F4
:1021300015009DF804008DF81600E5E7380000064C
:10214000380400062DE9FF410446414D206801276F
:10215000C0F3872001280AD013F06AF8002842D083
:10216000A07900283FD0002601283ED043E038481F
:102170000CF05AFB3648FEF7CCF8C6B20620B6FB88
:10218000F0F18DF80510B6FBF0F200FB126010B113
:10219000491C8DF805108DF806700DF0E9FA2D49EF
:1021A00041EA804000900024301BC1B2062900D9CA
:1021B000062100206A4607E02346641C1718EB5CE2
:1021C000E4B2FB71401CC0B28842F5D3891C8DF883
:1021D000041068460EF0A2F99DF80600401C8DF828
:1021E0000600B442E0D300F039B800202E54401C61
:1021F000C0B26428FAD3A079401E00EB400040062C
:10220000010E022009E064290AD2221853790A46F5
:10221000491CC9B2AB54401CC0B222798242F2D8E8
:10222000A0796179884205D309480CF02DFD8DF81D
:10223000056001E08DF805708DF804700DF098FAD6
:10224000054941EA8040009068460EF067F9CAE708
:10225000989600200A0400060A00000603BCBDE8A8
:10226000FC81000010B586B004462068C0F38720CA
:1022700001281ED012F0DCFF002818D00DF078FAEB
:102280001B4941EA8040029000208DF80C00E07963
:102290008DF80400207A617A00EB0120ADF8060089
:1022A000A07901A90CF00CFD02A80EF037F906B0D8
:1022B00010BD0DF05DFA0F4941EA80400290052003
:1022C0008DF80C00A07901A90CF0CCFA60798DF89A
:1022D0000D00A0798DF80E009DF804008DF80F0018
:1022E000BDF806008DF81000000A8DF81100DBE73C
:1022F000A1000006A104000610B588B004462068BD
:10230000C0F38720012823D012F092FF00281DD0AF
:102310000DF02EFA234941EA8040049000208DF808
:102320001400A079E17900EB01200090207A01905F
:10233000607AA17A00EB01200290E07A0390607944
:1023400069460CF0CBFC04A80EF0E8F808B010BD0C
:102350000DF00EFA144941EA8040049007208DF8F0
:10236000140060798DF81500607969460CF086FAE2
:102370009DF800008DF816009DF801008DF81700FB
:102380009DF804008DF818009DF808008DF81900DC
:102390009DF809008DF81A009DF80C008DF81B00BF
:1023A000D1E70000600000066004000610B588B0A8
:1023B00004462068C0F3872001281BD012F038FFA4
:1023C000002845D00DF0D4F9224941EA804004901C
:1023D00001208DF8140060798DF81500A079E1795D
:1023E00000EB01200090207A0190607930B3012841
:1023F00028D02AE00DF0BCF9174941EA804004904A
:1024000004208DF8140060798DF8150010B10128B2
:1024100004D006E068460CF04FFA02E068460CF083
:10242000A3FA9DF800008DF816009DF801008DF8C4
:1024300017009DF804008DF8180006E068460CF0BF
:1024400067FC02E068460CF0E9FC04A80EF066F8B0
:1024500008B010BD6B0000066B04000610B586B016
:1024600004462068C0F3872001281BD012F0E0FE4C
:10247000002815D00DF07CF9154941EA8040029002
:1024800000208DF80C0060798DF80400A0798DF89B
:102490000500BDF804000CF047FC02A80EF03EF861
:1024A00006B010BD0DF064F90A4941EA804002907F
:1024B00002208DF80C000CF009FA01909DF8040040
:1024C0008DF80D009DF805008DF80E00E5E7000081
:1024D000220000062204000610B586B004462068DB
:1024E000C0F38720012822D012F0A2FE00281CD0C1
:1024F0000DF03EF91C4941EA8040029000208DF821
:102500000C006079217AA27900EB0160E17909047D
:1025100001EB02214418019420460DF035F82046C5
:102520000CF00AFC02A80DF0F9FF06B010BD0DF08A
:102530001FF90E4941EA8040029004208DF80C00FA
:102540000CF0D4FF01909DF804008DF80D009DF86B
:1025500005008DF80E009DF806008DF80F009DF81F
:1025600007008DF81000DDE72B0000062B040006A5
:1025700010B586B004462068C0F3872001281ED01D
:1025800012F056FE002818D00DF0F2F81A4941EA70
:102590008040029000208DF80C006079217AA279A9
:1025A00000EB0160E179090401EB0221084401908C
:1025B0000CF0FEFF02A80DF0B1FF06B010BD0DF04B
:1025C000D7F80E4941EA8040029004208DF80C00B3
:1025D0000CF092FF01909DF804008DF80D009DF81D
:1025E00005008DF80E009DF806008DF80F009DF88F
:1025F00007008DF81000DDE72D0000062D04000611
:1026000010B586B004462068C0F3872001281ED08C
:1026100012F00EFE002818D00DF0AAF81B4941EA6E
:102620008040029000208DF80C00E0798DF80400C5
:10263000207A617A00EB0120ADF80600A07901A9AB
:102640000CF0B4FB02A80DF069FF06B010BD0DF050
:102650008FF80F4941EA8040029005208DF80C0068
:10266000A07901A90CF044F960798DF80D00A079EA
:102670008DF80E009DF804008DF80F00BDF80600DF
:102680008DF81000000A8DF81100DBE7B10000069C
:10269000B104000670B506460024104D16E055F84A
:1026A0002100516832680840114088420CD1304600
:1026B0000DF04EFC40B104EB440005EB8000816856
:1026C0003046BDE870400847641CE4B204EB4401A6
:1026D00005EB810290680028E1D170BD6497010884
:1026E00010B586B004462068C0F3872001281BD0AF
:1026F00012F09EFD002815D00DF03AF8154941EA78
:102700008040029000208DF80C0060798DF8040064
:10271000A0798DF80500BDF804000CF055FB02A867
:102720000DF0FCFE06B010BD0DF022F80A4941EA9A
:102730008040029002208DF80C000CF0E5F801902A
:102740009DF804008DF80D009DF805008DF80E0031
:10275000E5E70000230000062304000610B586B05C
:1027600004462068C0F38720012819D012F060FDCC
:10277000002813D00CF0FCFF144941EA804002907D
:1027800000208DF80C006079A17900EB012080B267
:1027900001900CF021FB02A80DF0C0FE06B010BDA8
:1027A0000CF0E6FF0A4941EA8040029002208DF8D1
:1027B0000C000CF0B5F801909DF804008DF80D00A8
:1027C0009DF805008DF80E00E5E700002A000006E0
:1027D0002A04000610B588B004462068C0F387209C
:1027E000012823D012F024FD00281DD00CF0C0FFDA
:1027F000234941EA8040049000208DF81400A0791C
:10280000E17900EB01200090207A0190607AA17AB2
:1028100000EB01200290E07A0390607969460CF0A9
:10282000E3FA04A80DF07AFE08B010BD0CF0A0FF8A
:10283000144941EA8040049007208DF81400607923
:102840008DF81500607969460CF070F89DF800006D
:102850008DF816009DF801008DF817009DF8040012
:102860008DF818009DF808008DF819009DF80900F2
:102870008DF81A009DF80C008DF81B00D1E70000C0
:10288000610000066104000610B5A0B0044620688F
:10289000C0F38720012827D012F0CAFC002821D0DD
:1028A0000CF066FF274941EA80401C9000208DF81B
:1028B0007400E01D00F036FC1B9004F10A0000F0EB
:1028C00031FC1A90A1796479034620461B9A0AF0DC
:1028D000ADFBDDE91A321CA101A809F0EFF91CA833
:1028E0000DF01CFE20B010BD0CF042FF1A4941EA69
:1028F00080401C9008208DF87400A17960791AAB93
:102900001BAA0AF069FB60798DF87500A0798DF833
:1029100076009DF86C008DF877009DF86D008DF8BD
:1029200078009DF86E008DF879009DF868008DF8AC
:102930007A009DF869008DF87B009DF86A008DF89B
:102940007C00CCE79100000657722056626174202B
:1029500025642025640000009104000610B586B0AF
:1029600004462068C0F38720012825D012F060FCBF
:1029700000281FD00CF0FCFE1F4941EA8040029065
:1029800000208DF80C0060798DF80400A0798DF896
:102990000500BDF804000CF04DFAE0798DF8040054
:1029A000207A8DF80500BDF804000CF067F902A844
:1029B0000DF0B4FD06B010BD0CF0DAFE0F4941EA8F
:1029C0008040029004208DF80C000BF0D7FF01909E
:1029D0009DF804008DF80D009DF805008DF80E009F
:1029E0000BF016FF01909DF804008DF80F009DF884
:1029F00005008DF81000DAE721000006210400062A
:102A0000002803D102480168491C0160704700009A
:102A1000FC0000201FB504460CF030FC00281BD041
:102A200008220EA1601DFDF77BFC002814D10CF0DC
:102A30001FFC411C41EA80400B49084300900820DC
:102A40008DF8040009A00168CDF805104068CDF8A4
:102A5000090068460DF062FD1FBD00004765745314
:102A600063754944000000000004000A5265745375
:102A7000637549440000000010B5082206A1401DFE
:102A8000FDF74EFC002806D10CF054FCBDE81040C8
:102A900004A00DF049BD10BD5273745363754944D1
:102AA00000000000524553455420534355204944EB
:102AB000000000007FB505460CF0EAFB00281FD09F
:102AC0002C78022C1CD308220EA1681DFDF728FCCF
:102AD000002815D1601E40EA844040F00820009094
:102AE00008208DF804000AA00168CDF805104068A0
:102AF000CDF8090068460DF011FD20460CF09EFB54
:102B00007FBD0000526574536375494400000000A6
:102B100053746F7049444173000000001FB50446B0
:102B2000082211A1601DFDF7FBFB00281BD12068C6
:102B3000C0F386440CF09CFB411C8C4213D10D4920
:102B400040EA84400843009008208DF804000AA061
:102B50000168CDF805104068CDF8090068460DF011
:102B6000DDFC0CF059FC1FBD53746F704944417378
:102B7000000000000008000A53746F706564494447
:102B80000000000070B504462068C0F386450CF0D4
:102B90006FFBA8420CD1082206A1601DFDF7C0FB07
:102BA000002805D10CF05EFBBDE870400CF050BB76
:102BB00070BD000053746F706564494400000000EC
:102BC0001FB504462068C0F38720012813D012F0F7
:102BD0002FFB00280ED00CF0CBFD0E4941EA8040BF
:102BE000009000208DF8040060790BF057FF6846D4
:102BF0000DF094FC1FBD0CF0BBFD074941EA80407D
:102C0000009001208DF804000BF0C8FC8DF8050041
:102C1000EDE70000270000062704000630B585B068
:102C200004462068C0F3872001282FD012F000FB53
:102C3000002829D0A079617AE27900EB0160217A3D
:102C4000090401EB0221014460790BF02FFFA07A07
:102C5000617BE27A00EB0160217B090401EB022138
:102C60000844049000258DF81350607904990CF005
:102C70001DF80CF07DFD1E4941EA804000908DF862
:102C8000045068460DF04AFC05B030BD0CF070FDF4
:102C9000184941EA8040009008208DF804006079CE
:102CA0008DF8050060790BF07FFC04909DF8100012
:102CB0008DF806009DF811008DF807009DF81200B0
:102CC0008DF808009DF813008DF8090060790BF06D
:102CD000BBFD04909DF810008DF80A009DF81100CE
:102CE0008DF80B009DF812008DF80C00C9E700006C
:102CF00033000006330400067FB504460126206831
:102D0000184DC0F38720012812D00CF031FD4FF090
:102D1000C06141EA804000908DF8046000208DF889
:102D20000500082210A1601DFDF7FAFA60B115E058
:102D30000CF01EFD0F4941EA804000908DF80460C0
:102D400028788DF8050009E0287818B900210A488C
:102D500006F0D0FA0A2028708DF8050068460DF0BC
:102D6000DDFB7FBD340100204573735772506172E3
:102D700000000000000400060D580108002803D1DF
:102D800002484188491C418070470000D000002063
:102D90002DE9F0478046002798F88A0D00282ED0AC
:102DA0000CF0FCFC00282AD198F88A0D401E00F097
:102DB000FF0A00241FE098F88A0DA0421FD3204686
:102DC0000BF0F2FB0646002508EB4419F0070BD088
:102DD000544507D139F81500FDF7E4FF01463846A0
:102DE00012F0FCF87F1CBFB276086D1CEDB2102DFE
:102DF000ECD3641CE4B20BF0D1FBA042DBD8BDE8FD
:102E0000F08700002DE9F05F05460C46002695F896
:102E10008A0D00283FD00CF0C1FC00283BD195F86A
:102E20008A0D401E00F0FF0A4FF0010B0BFA04F070
:102E30001FFA80F90024194F29E095F88A0DA04265
:102E400029D320460BF000FD80460020F874F87C62
:102E50000BFA00F080B218EA000F10D054450CD1E4
:102E600010EA090F09D005EB0410B0F8E007FDF7F0
:102E7000B3FF0146304612F0C1F8761CB6B2F87CBA
:102E8000401CC0B2F8741028E1D3641CE4B20BF00B
:102E900085FBA042D1D800F003B8000078020020E2
:102EA00030BCBDE8C09F802001F0FABF08B50548DE
:102EB000816C41F001018164806C00F001000090A0
:102EC00008BD00000010024070470000124A107F49
:102ED0001249012801D003280BD10B6843F4006389
:102EE0000B600B6823F400630B600B6843F4007302
:102EF0000B60022801D003280BD1086840F48050F1
:102F00000860086820F480500860086840F4806019
:102F10000860002010777047F00200200020024077
:102F20000849C20703D04A6942F004024A61800797
:102F300003D5486940F400404861486940F4803056
:102F40004861704700200240CA070C4904D04A6912
:102F500022F400624A6103E04A6942F400624A6175
:102F60004A6960F3CA024A61486940F00200486158
:102F7000486940F4803048617047000000200240FA
:102F800010B505494C6944F001044C610260BFF37F
:102F90006F8F436010BD00000020024010B540223A
:102FA000084B5C6944F480245C61EFF3108372B6D3
:102FB00010C910C0521ED2B2002AF9D183F3108872
:102FC00010BD00000020024070B5044602F05EF81B
:102FD0000546164E08E0601C06D002F057F8401B6C
:102FE000A04201D3032070BD3069C003F3D430691F
:102FF0004CF2FA31084088B10D494A6802434A60F0
:10300000810F04D0B16900F040421143B1618100E9
:1030100002D020F040403061012070BD3069C0070F
:1030200001D001203061002070BD0000002002406E
:10303000F00200202DE9FF410C46022500281BD09C
:103040000327294E01283BD0022828D0032811D17C
:103050000CF08EFB46EA804000908DF804708DF8ED
:10306000055020788DF8060060788DF807006846D6
:103070000DF054FA00F03AB80CF07AFB1A49491EE8
:1030800041EA804000908DF8045020788DF80500CA
:1030900060788DF8060068460DF040FAEAE70CF01B
:1030A00067FB46EA804000908DF8045000208DF8C0
:1030B000050020788DF8060068460DF02FFAD9E754
:1030C0000CF056FB46EA804000908DF80470012019
:1030D0008DF8050020788DF8060060788DF80700DF
:1030E00068460DF01BFAC5E70400001A03BCBDE8F2
:1030F000FC8130B503464FF6FF704AF201040DE043
:1031000013F8012B50400022C50702D084EA50007A
:1031100000E04008521CD2B2082AF5D3491EC9B2B9
:10312000EED230BD08B501788DF8001041788DF8E9
:10313000011080788DF80200000603D5FF208DF87D
:10314000030002E000208DF80300009808BD000095
:103150002DE9F047DFF854A1514501D1012A1CD0D7
:10316000514501D1022A1BD0514501D1042A19D061
:10317000514501D1082A17D0DFF83491DFF83481A6
:103180004D4B4E4C4E4D4F4E4F4FDFF840C168B146
:1031900001280BD0022855D075E04D48BDE8F087D6
:1031A0004C48FBE74C48F9E74C48F7E74FF09040B4
:1031B000814201D1012A2DD0814201D1022A2BD096
:1031C000814201D1042A29D0814201D1082A27D085
:1031D000814201D1102A25D0814201D1202A23D059
:1031E000814201D1402A21D0814201D1802A1FD0C1
:1031F000514501D1102A1DD0514501D1202A1BD0A3
:103200003748814201D1012A18D081423BD1022A9C
:1032100016D038E03348C1E74846BFE74046BDE72F
:103220001846BBE72046B9E72846B7E73046B5E77A
:103230003846B3E76046B1E72B48AFE72B48ADE728
:103240002B48ABE72B48814201D1032A1ED0814293
:1032500001D1042A1CD0814201D1052A1AD0814211
:1032600001D1062A18D0814201D1072A16D0814205
:1032700001D1082A14D0814201D1092A12D08142F9
:1032800001D10A2A10D06FF0010087E7484685E790
:10329000404683E7184681E720467FE728467DE7DA
:1032A00030467BE7384679E7604677E70008004814
:1032B000400020198000501D000180210002B0252F
:1032C0000004002A0008302E0010603200209036E2
:1032D00002003004040060080800900C1000C010C8
:1032E000000400482000F0140040C03A0080F03E86
:1032F000000021430014004870B500250BF05CF974
:1033000008B1002408E040F6AC5070BD204611F032
:1033100005FE0544641CA4B20BF04EF9A042F5D89A
:103320000BF04AF9B5FBF0F080B270BD30B513492F
:1033300009684FF48013CD0511494FF000640A6805
:103340006FEA02010CD40904090C01D011048B09A5
:1033500004EB5301814201D9012030BD022030BD70
:103360000904090C01D011048B0904EB53018142BB
:1033700001D9022030BD012030BD00000000014015
:10338000E075FF1F70B52A4C94F88850002D0AD0C4
:103390006421B0FBF1F1CAB294F88A10914204D9C9
:1033A000B4F88C0070BD002070BD6D1E04EB85016B
:1033B00091F88A60964202D8B1F88C0070BD002165
:1033C00032E004EB810696F88A6096422AD84E1CB9
:1033D00004EB860696F88A60964223D904EB8102B4
:1033E0006FF0180512F88A3F13FB05F500EB850511
:1033F000491C04EB81045088B4F88C10814202D33C
:103400000A1A002101E0421A012194F88A40E31AC5
:10341000642463435543B5FBF3F209B1831A05E015
:10342000831803E0491CC9B28D42CADC98B270BD52
:10343000A807002030B510494FF480130968CA432B
:103440001404240C0BD00C04A4094FF0006505EB08
:103450005404844205D9A0F10060C00A30BD1C4666
:10346000F3E71204120C01D009048B09A0EB5300FE
:10347000A0F10060C00A30BDE075FF1F2DE9F041EA
:1034800006462E4BB3F8F0006427B6FBF7F1CAB23C
:1034900093F88940002C02D00021641E4AE00020ED
:1034A000BDE8F08103EB810595F8EE5095423ED8DA
:1034B0004D1C03EB850595F8EE50954237D903EB8B
:1034C0008104491C03EB810CB4F8F000BCF8F01047
:1034D0008842E5D00CD9A0EB01034FF000059CF821
:1034E000EE2002EBC20808EB0212C6EB82020BE0F0
:1034F000A1EB00034FF0010594F8EE206FF01808DF
:1035000012FB08F206EB82029CF8EE6094F8EE40A3
:10351000A6EB040402FB03F2B2FBF4F2B2FBF7F2F7
:103520000DB1104401E001EB020080B2B8E701F1F7
:103530000101C9B28C42B5DCB2E70000A807002047
:10354000F8B504460E460025009594F8540001286D
:1035500010D0012084F854002046FDF7C1FA02463D
:10356000100009D0A06D40F01000A06584F8545000
:103570001046F8BD0220F8BDA06D20F4885040F040
:103580000200A06520688168134B194006F0804353
:10359000194341F0004181604FF4912320680FE00E
:1035A0000099491C00910099994209D3A06D20F01F
:1035B000020040F01000A06584F854500120F8BDCE
:1035C0008168C90F0029EBD1A06D20F0020040F006
:1035D0000100A065CAE70000C0FFFF3F2DE9F047EA
:1035E0009AB004460D464FF0000994F854000128A3
:1035F0000ED0012084F85400002616961796354FF9
:103600002068DFF8D480B84206D1CDF8008004E00D
:1036100002201AB0BDE8F0870096009840B10098EB
:1036200005F0E0FB8246206805F0DCFB40B10AE0D3
:10363000A06D40F02000A06584F854600120E8E708
:10364000BAF1000F09D0A06D40F02000A0654FF046
:10365000010984F854604846DBE72048204B29687C
:1036600040F61F7201B3816894F830C021F46041C4
:1036700041EA4C31D5F804C041EA0C018160B968D7
:10368000C1F30001D8F80870C7F3000739439B68FD
:10369000C3F300031943DCD1AB682968194383687D
:1036A000934319438160D4E7816821F460418160CC
:1036B000B968C1F30001D8F80850C5F300052943E3
:1036C0009B68C3F300031943C3D1816891438160B0
:1036D000BFE7000000000450000104500003045044
:1036E000000204502DE9F84F04460D46002600273D
:1036F0000097DFF8049494F85400012811D04FF09B
:10370000010884F85480206805F068FB58B1A06D6A
:1037100040F02000A065012684F85470304600F087
:1037200001BA0220FBE76868052809D8022827D0DB
:10373000032828D0042829D005282AD0062068602C
:10374000A98820682A6801F4407300EB9310036B8A
:1037500001F01F014FF01F0C0CFA01FCC2F3846250
:1037600023EA0C038A4013430363206805F036FB09
:103770008246206805F02AFB5AEA000A0DD0ADE027
:103780000C206860DCE712206860D9E718206860C8
:10379000D6E74FF480706860D2E7AA68B2F1004FB4
:1037A00022D02968206805F029FB2068416921F0B2
:1037B0000041416120686A69C168C1F3C1014900E3
:1037C0008A40296904291AD02B6800EB8100016E18
:1037D000DFF828C303F0F84301EA0C01134319434F
:1037E00041F00041016679E029680022206805F077
:1037F00005FB2068416941F000414161DAE70021A1
:1038000005F0DEFA40036FD00021206805F0D8FAF9
:1038100090FAA0F0B0FA80F1286842036BD090FAD9
:10382000A0F0B0FA80F0814204D100221146206855
:1038300005F0F3FA0121206805F0C2FA40035DD0DB
:103840000121206805F0BCFA90FAA0F0B0FA80F1EE
:103850002868420359D090FAA0F0B0FA80F0814273
:1038600004D100220121206805F0D7FA0221206846
:1038700005F0A6FA40034BD00221206805F0A0FA1B
:1038800090FAA0F0B0FA80F12868420347D090FA8D
:10389000A0F0B0FA80F0814204D100220221206819
:1038A00005F0BBFA0321206805F08AFA400339D0FD
:1038B0000321206805F084FA90FAA0F0B0FA80F1B4
:1038C0002868420335D090FAA0F0B0FA80F0814227
:1038D00004D100220321206805F09FFA206805F03A
:1038E00079FA48B3B1E0FFE70021206805F068FAF3
:1038F000C0F3846190E7C0F3846094E701212068FD
:1039000005F05EFAC0F38461A2E7C0F38460A6E725
:103910000221206805F054FAC0F38461B4E7C0F3D3
:103920008460B8E70321206805F04AFAC0F3846197
:10393000C6E7C0F38460CAE720682A7B296850F88C
:10394000B03FC1F3120C23EA0C0302F0180C6C4ACE
:1039500022FA0CF20A4013430360E868484574D128
:103960002868410319D090FAA0F1B1FA81F1491CFD
:1039700001F01F01092931D84103002910D090FA24
:10398000A0F1B1FA81F101F1010101F01F0108FA82
:1039900001F808D1C0F3846109E0C0F38461E6E76F
:1039A000C0F38461EFE790FAA0F1B1FA81F101F17F
:1039B000010101F01F0148EA816102D1C0F3846076
:1039C00003E090FAA0F0B0FA80F000F1010000F0FE
:1039D0001F0000EB400041EA005132E04FEA403165
:1039E00000290DD090FAA0F1B1FA81F101F10101A5
:1039F00001F01F0108FA01F805D1C0F3846106E067
:103A0000C0F38461F2E790FAA0F1B1FA81F101F11B
:103A1000010101F01F0148EA816102D1C0F3846015
:103A200003E090FAA0F0B0FA80F000F1010000F09D
:103A30001F00A0F10A0000EB400041EA005040F0F6
:103A40000071AA68206805F0D9F92E48296801425A
:103A50003FF462AE2C4A906800F0E070DFF8ACC032
:103A60002B4B2C4D614521D15FEA002C1ED42168DF
:103A7000994202D0A9427FF44FAE40F40000916811
:103A800021F0E07101439160234824490068B0FBB4
:103A9000F1F0401C00EB40008000009002E0009834
:103AA000401E009000980028F9D135E6DFF870C07C
:103AB00061450FD15FEAC01C0CD42168994201D046
:103AC000A942F2D140F08070916821F0E071014389
:103AD000916021E66FF00045E942E6D14102E4D46D
:103AE00021689942E1D140F48000916821F0E071B1
:103AF0000143916010E6000000007F4000F0FF03EA
:103B0000FFFF07000000088000030450000052C7B8
:103B1000000004500002045020000020400D03006B
:103B2000000084CB18BCBDE8E08F00BF704700BF29
:103B300070477047F8B50446002500260096002C13
:103B400002D0A06D10B107E00120F8BD204600F0C2
:103B5000DDF8E66584F8546020688168C1F340713F
:103B600019B18168604A1140816020688168C1F3A1
:103B70000071A1B981685D4A114041F080518160B6
:103B80005B485C490068B0FBF1F0401C40000090CD
:103B900002E00098401E009000980028F9D12068AB
:103BA0008168C1F3007141B9A16D41F01001A165B7
:103BB000E16D41F00101E165012505F00FF9A16D0D
:103BC000C90600D430B1A06D40F01000A0650125F9
:103BD0002846F8BDA06D20F4807040F00200A0657A
:103BE000206805F0F7F8A8B943488068C0F30000E2
:103BF00042498968C1F30001084341498968C1F31A
:103C00000001084306D160683E498A6822F47C12AC
:103C100002438A60E168606B627E0843A16841EA02
:103C20004231084394F8201040EA0140012903D1B1
:103C3000A18C491E40EA4140A16A29B101F470718A
:103C4000E26A014342EA01002168CA682E4B1A4029
:103C50000243CA60206805F0C1F80646206805F0F6
:103C6000B5F8064317D1207E94F83010800340EA5F
:103C70004101E06C01432068C26844F206039A43A4
:103C80000A43C26094F83800012813D02068016903
:103C900021F001010161206901281CD02068016B1D
:103CA00021F00F010163A06D20F0020040F001003F
:103CB000A0658DE7D4E90F100143D4E91102104348
:103CC00001432068026940F2FC739A43114341F0BA
:103CD00001010161DFE72068016BE26921F00F015A
:103CE000521E11430163DEE7C0FFFF5FC0FFFF7F8D
:103CF00020000020400D030000000450000104508B
:103D0000000204500003045007C0F0FF2DE9F04109
:103D1000ADF5047D05463C2175A8FCF7E3FA4FF4A8
:103D2000A07125A8FCF7DEFA8C2102A8FCF7DAFACC
:103D300037492868884267D14FF480400290800359
:103D4000219003200390012004900A200590022076
:103D500006900790082008904005099002A801F0FD
:103D600055FA08B1FFF7B0F82A48C16C41F4005188
:103D7000C164C16C01F400510191C16C41F00101B9
:103D8000C164C16C01F001010191C16C41F00201FB
:103D9000C164C16C01F002010191C16C41F00401E8
:103DA000C164C06C00F0040001901B4F00263E70FF
:103DB000002407F1040858F8340058B108EBC40196
:103DC000898839B100230B22009604F087FA3878ED
:103DD000401C3870641C102CEDDB114C0F48206027
:103DE0006660A660E660802020614000606180001F
:103DF000A0612020E0612662204600F0EFFD08B1BE
:103E0000FFF762F82C65A5620DF5047DBDE8F08131
:103E10000000045000100240CC03002008000240C3
:103E2000C0C000202DE9F04104460E461746354833
:103E3000806800F01F05206804F0D0FF10B1022058
:103E4000BDE8F08194F8540001280CD0012084F8DA
:103E500054004FF0000845B1052D06D0092D04D0BF
:103E600084F85480ECE70220EAE72046FCF77AFE6B
:103E700010B184F85480E3E7A06D40F601618843F7
:103E800040F48070A06520492068884201D11F4A13
:103E900000E00246824200D01DB9A06D20F48010DF
:103EA000A065A06DC00404D5E06D20F00600E065BB
:103EB00001E0C4F85C80216D1548C862216D154889
:103EC0000863216D1448486321681C20086084F849
:103ED00054802068416841F0100141602068C16849
:103EE00041F00101C16021683B4640313246206DFE
:103EF00000F0E4FD21688A68084B1A40121D8A60B0
:103F00009EE700000003045000010450000004502C
:103F10003F0A0008D70A0008BD0A0008C0FFFF7F5B
:103F200090F82020012A07D0022A05D0416A41F4E6
:103F30008021416201207047006842690A43426162
:103F400000207047F0B590F820500468A468012D57
:103F500007D0022D05D0416A41F480214162012041
:103F6000F0BD04F0806504F00066354301D1E50042
:103F70005BD5C4F30164022C05D9416A41F4000108
:103F800041620120F0BD0125A5401D608B684FF402
:103F9000C0759BB1CE6805EB041733434E6843EA06
:103FA000C6030668F3514FF4C273076803EB0413AA
:103FB0000E69FE50097D012909D00DE00E88CB68FD
:103FC00005EB041743EA46530668F351EBE7016833
:103FD000CE5846F48076CE501179D379567941EA9D
:103FE000036193791B0443EA062319434FF4C67611
:103FF000036806EB041699511178D37841EA0361FE
:10400000937852781B0443EA022211434FF4C4739D
:10401000026803EB0413D150006805EB0411425809
:1040200042F0010242500020F0BD416A41F400110B
:1040300041620120F0BD000010B590F82020012A57
:1040400007D0022A05D0416A41F480214162012053
:1040500010BD3C4800F50070026842F001020260A9
:10406000026822F47C52026002684B6A42EA032230
:1040700002600A7D02F01F0301229A40C369934344
:10408000C361A0F50070CB69B3B9D0F80C3293438B
:10409000C0F80C328C894B6864F31F434C6900EB09
:1040A000C404C4F840320C890B6864F31F434C69A4
:1040B00000EBC404C4F84432CB69012B16D1D0F80C
:1040C0000C321343C0F80C320C884B6864F31F4366
:1040D0004C6900EBC404C4F840320C89CB6864F32B
:1040E0001F434C6900EBC404C4F844328B697BB1B4
:1040F000D0F804321343C0F804320B6973B1D0F81E
:1041000014321343C0F81432096A01290CD010E0AC
:10411000D0F804329343C0F80432EEE7D0F81432FA
:104120009343C0F81432EFE7D0F81C121143C0F8E3
:104130001C12D0F8001221F00101C0F8001200207A
:1041400010BD000000640040704730B590F820407A
:10415000012C07D0022C05D0416A41F48021416234
:10416000012030BD21B104682469A4075FD003E0B9
:104170000468E468A40754D04FF4D874056804EBCD
:1041800001142D5905F004059560F5B305682D5906
:10419000ED08556005682C5904F00204D4604FF412
:1041A000DA74056804EB01142D5905F00F0515614B
:1041B00005682D59C5F30725956105682C59240C10
:1041C00054614FF4DC72046802EB0112A4581C70B5
:1041D0000468A458240A5C700468A458240C9C70D9
:1041E0000468A258120EDA704FF4DE72046802EB13
:1041F0000112A4581C710468A458240A5C71046854
:10420000A458240C9C71046800E016E0A258120E19
:10421000DA71B9B10068016941F020010161002043
:1042200030BD416A41F400114162012030BD416A54
:1042300041F400114162012030BD05682D596D0D1A
:104240001560A7E70068C16841F02001C160E6E79A
:104250000246002092F82010012901D002290CD139
:1042600011688A68520100D501208A68120100D5C0
:10427000401C8968C90000D5401C70472DE9F05FDB
:104280000546002428684669D0F804908768D0F86D
:104290000CA0D0F810B0D0F81880F10748D0F9077A
:1042A00014D001218160B80703D5284600F086FAB2
:1042B0000CE0780702D54FF4006407E0380702D518
:1042C0004FF4805402E0284600F077FAF80516D53E
:1042D00029684FF480708860B80503D5284600F03F
:1042E00070FA0CE0780502D544F4005407E0380574
:1042F00002D544F4804402E0284600F061FAF80355
:1043000016D529684FF480308860B80303D5284655
:1043100000F05AFA0CE0780302D544F4004407E0B8
:10432000380302D544F4803402E0284600F04BFA0A
:10433000300707D55FEACA6004D544F400742968E1
:104340001020C86070074FF0080707D55FEA0A70B1
:1043500004D52868C760284600F0B0F9B00706D534
:104360002868C068800702D0284600F0A9F97006C6
:1043700007D55FEACB6004D544F480642968102037
:104380000861B00607D55FEA0B7004D5286807619D
:10439000284600F0E3F9F00606D528680069800792
:1043A00002D0284600F0DBF9B00308D55FEAC96007
:1043B00005D5296810204860284600F0D1F9F0039F
:1043C00007D55FEA097004D528684760284600F0E1
:1043D000FDF9300446D55FEA497040D5F00504D5B3
:1043E0005FEAC87001D044F00104B00504D55FEA6B
:1043F000887001D544F00204700504D55FEA487066
:1044000001D544F00404300529D518F0700F26D0EA
:1044100008F07000402815D006DC102809D02028AC
:104420000AD0302816D10AE050280ED0602811D1C9
:104430000EE044F008040DE044F010040AE044F0FB
:10444000200407E044F0400404E044F0800401E06C
:1044500044F480742868816921F0700181612968C1
:1044600004204860002C05D0686A20436862284612
:10447000FFF76AFE00F000B830BCBDE8C09F70B521
:104480000446002C03D094F8200010B104E0012071
:1044900070BD204600F09CF82068016821F0020100
:1044A000016000F0F3FD054605260CE000F0EEFD8E
:1044B000401B0A2807D9606A40F40030606284F823
:1044C0002060012070BD206840688007EED420681D
:1044D000016841F00101016000F0D8FD05460CE0E3
:1044E00000F0D4FD401B0A2807D9606A40F4003070
:1044F000606284F82060012070BD20684068C007B9
:10450000EED0207E01283FD02068016821F0800194
:104510000160607E01283DD02068016821F04001E3
:104520000160A07E01283BD02068016821F02001B5
:104530000160E07E012839D02068016841F0100157
:104540000160207F012837D02068016821F0080130
:104550000160607F012835D02068016821F00401E6
:104560000160D4E902010843D4E90412114308436D
:104570006168491E08432168C8610020606201200B
:1045800084F82000002070BD2068016841F080019F
:104590000160BEE72068016841F040010160C0E7AA
:1045A0002068016841F020010160C2E720680168CD
:1045B00021F010010160C4E72068016841F00801A2
:1045C0000160C6E72068016841F004010160C8E7A6
:1045D000F0B587B0354A0168354802250324012625
:1045E000914220D1816D41F000718165816D01F0B2
:1045F00000710191C16C41F00101C164C16C01F015
:1046000001010191C16C41F00101C164C06C00F075
:104610000100019003950594049609200690D0149A
:10462000029007B0F0BD234A9142FAD1816D41F06A
:1046300080618165816D01F080610191C16C41F003
:104640000201C164C16C01F002010191C16C41F031
:104650000201C164C06C00F0020001904020029091
:1046600003950594049608200690134F02A9384636
:1046700000F022FC202002900395059404960694F5
:1046800002A9384600F018FC00220121572000F052
:104690004FFD572000F03FFD00220121562000F081
:1046A00047FD562000F037FDBBE7000000640040E6
:1046B00000100240006800400004004870470000FD
:1046C00000B58DB0214A0168914237D0204A91420D
:1046D00034D104AB06AA0021FFF737FD00282DD105
:1046E000089828B1079800900998022807D00AE096
:1046F00006980090009840F000400090F4E7009881
:1047000040F0804000900A98C0B28DF8040008285C
:1047100002D908208DF804009DF8042004A90DF1A9
:104720000500FBF7C6FD69460A4813F08EFB0A49EF
:1047300030B14968002901D0012088470DB000BD83
:1047400049680029FAD000208847F7E70064004054
:104750000068004060C00020C4030020704770471C
:10476000704770B5044694F82000012805D0606AAF
:1047700040F400206062012070BD022084F8200017
:104780002068016821F00101016000F07FFC05460E
:104790000DE000F07BFC401B0A2808D9606A40F459
:1047A00000306062052084F82000012070BD206880
:1047B0004068C007EDD1606270BD704705F004B875
:1047C000704705F001B8704704F0FEBF704710B5A0
:1047D00090F825100023022905D00421C16380F838
:1047E0002430012010BD01680A6822F00E020A6020
:1047F00001680A6822F001020A6090F84410012260
:1048000001F01C0402FA04F1046C616080F82520B8
:1048100080F82430184610BD10B5002490F82510FB
:10482000022903D00421C16301241AE001680A6847
:1048300022F00E020A6001680A6822F001020A6092
:1048400090F84410012301F01C0203FA02F1026CFB
:10485000516080F82530002180F82410816B01B16F
:104860008847204610BD000030B5002812D00168EE
:104870000A6822F001020A60224C02681421224BCD
:10488000A24209D2214C1444B4FBF1F189004164E5
:1048900003640BE0012030BD1A4C64421444B4FBA5
:1048A000F1F1890041641749083901640021116060
:1048B00090F8442002F01C040122A240046C6260C3
:1048C000046C0F229C4209D153F8A84F90F8445031
:1048D00005F01C05AA4094431C6009E0094BA03375
:1048E0001C6890F8445005F01C05AA4094431C60D5
:1048F00024308160C160016141618161417001705A
:10490000002030BD0804024000000240F8FFFDBF57
:10491000F0B4016C0A6801680B6890F84440042602
:1049200004F01C0406FA04F5154215D05D0713D5F2
:104930000A68920603D40A6822F004020A6090F81A
:10494000441001F01C0106FA01F5016C4D60016B89
:10495000002941D0F0BC08474FF0020C0CFA04F6D5
:1049600016424FF000074FF0010519D09E0717D5EA
:104970000A68920605D40A6822F00A020A6080F8E2
:10498000255090F8441001F01C010CFA01F6016C5E
:104990004E6080F82470C16A00291DD0F0BC084721
:1049A0000826A640164217D01A0715D50A6822F025
:1049B0000E020A6090F84410026C01F01C0105FA26
:1049C00001F15160C56380F8255080F82470416B77
:1049D000002901D0F0BC0847F0BC704770B5002832
:1049E0000DD0334C01681423324AA14209D2324C13
:1049F0000C44B4FBF3F39B00436402640BE001201E
:104A000070BD2B4C64420C44B4FBF3F39B00436435
:104A1000274B083B0364022380F825300B6847F6D8
:104A2000F074A343D0E902452C43D0E90456354342
:104A30002C4385692C43C5692C43056A2C431C43D0
:104A40000C608168B1F5804F29D0016C0F23914231
:104A500012D152F8A81F90F8444004F01C04A3405F
:104A60009943116090F84430416803F01C03994069
:104A700013681943116012E00D49A0310A6890F8DB
:104A8000444004F01C04A3409A430A6090F8443068
:104A9000426803F01C039A400B681A430A60002125
:104AA00024308161012242700170002070BD00003D
:104AB0000804024000000240F8FFFDBF70B5044644
:104AC000002594F8240001280CD0012084F824004B
:104AD00094F825600020012E06D084F824000225D9
:104AE000284670BD022070BD022684F82560E06370
:104AF0002068066826F0010606602046FCF76CFA7E
:104B0000206B28B12068016841F00E01016009E0C6
:104B10002068016821F0040101602068016841F00B
:104B20000A0101602068016841F001010160D7E7D6
:104B300070B5044600F0AAFA0546601C02D004488D
:104B40000078044400F0A2FA401BA042FAD370BDE2
:104B5000E40200202DE9F05F044688463C4F387897
:104B600001280BD001253D704CF2503B5846FEF712
:104B70002BFA06464FF0000A1EB164E0022000F056
:104B80006BB8C7F804A0DFF8CC90D9F80000800516
:104B900014D5D9F8000020F40070C9F80000D9F845
:104BA0000000400508D5D9F8000020F48060C9F85D
:104BB00000000320387710E03D770EE0D9F80000C0
:104BC000400508D5D9F8000020F48060C9F800003D
:104BD0000220387701E087F81CA02068012807D060
:104BE0004FF0FF30C8F80000A56840F2FA7B23E0E0
:104BF0006068FEF795F95846FEF7E6F90646D9F8DB
:104C0000140048F204018843C9F8140019E028464A
:104C10006168FEF799F94CF25030FEF7D5F9064677
:104C2000D9F8140020EA0B00C9F81400300002D0B3
:104C3000C8F8005005E06D1CD4E902010844A84200
:104C4000E5D8FEF743F987F800A0304697E7000063
:104C5000F00200200020024030BCBDE8C09F0000F0
:104C60002DE9FF5F074614461D460026DFF89C909D
:104C700099F8000001280CD0012089F800004CF2BE
:104C80005030FEF7A1F98046B346B8F1000F04D0CA
:104C900038E0022004B000F03DB8C9F804B0DFF8F5
:104CA00070A0DAF80000400509D5DAF8000020F419
:104CB0008060CAF80000022089F81C0001E089F831
:104CC0001CB027B1012F09D0022F07D00DE02246DA
:104CD0002B460198FEF754F9012606E0214601987B
:104CE000FEF75CF9022F00D17E044CF25030FEF743
:104CF0006BF9804626B1DAF81400B043CAF8140004
:104D0000FEF7E4F889F800B04046C3E7F00200205F
:104D10000020024030BCBDE8C09F000000200649D2
:104D20004A69002A07DA054A8A60054A8A604969A1
:104D3000002900DA01207047002002402301674566
:104D4000AB89EFCD2DE9F04F0023DFF808814FF05C
:104D5000010C0F2779E00CFA03F4A1460C40002C5B
:104D600072D023F0030202EB0805AA689E074FEAFF
:104D7000167A07FA0AF606EA020BB0F1904F04D051
:104D8000354A904203D1012220E000221EE0334A3E
:104D9000904201D1022219E0314A904201D103220E
:104DA00014E0304A904201D104220FE02E4A904292
:104DB00001D105220AE02D4A904201D1062205E0E8
:104DC0002B4A904201D1072200E0082202FA0AF29F
:104DD0005A451ED1DFF89CA0DAF80020A243CAF899
:104DE00000200AF1040ADAF80020A243CAF80020E1
:104DF0000AF1040ADAF80020A243CAF800200AF1F6
:104E0000040ADAF80020A243CAF80020AA68B243D4
:104E1000AA6004685D000322AA4014430460DC0811
:104E200000EB8404266A5D074FEAD56A07FA0AF5A3
:104E3000AE432662846894438460446824EA09048B
:104E40004460C4689443C4605B1C31FA03F282D1AD
:104E500000F012B8000001400004004800080048BB
:104E6000000C0048001000480014004800180048DA
:104E7000001C00480004014030BCBDE8C08F0000A9
:104E800010B5B0F5005F08D10020FBF7CDFE002083
:104E9000FBF700FF01490120486110BD24000020FC
:104EA00010B504490A68024202D00860FFF7E8FF23
:104EB00010BD0000140401402DE9F84F0022DFF876
:104EC00080A14FF003084FF00F090AF1040BAFE087
:104ED000012595402B40002B71D04C68012C05D04A
:104EE000022C03D0112C01D0122C10D18668540052
:104EF00008FA04F7BE43CF68A74037438760446889
:104F0000AC430D79C5F30015954025434560C46851
:104F1000570008FA07F5AC438E68BE402643C660CA
:104F20004C68022C01D0122C12D1D40800EB840C56
:104F3000DCF820605407E40E09FA04FE26EA0E06A7
:104F4000D1F810E00EFA04FE4EEA060ECCF820E08E
:104F50000468AC430D7905F00305BD4025430560A9
:104F60004C68E40063D5374C256E45F00105256695
:104F7000246E04F001040094334C22F003052E1932
:104F8000B7689407250F09FA05F4A743B0F1904FCD
:104F900004D02E4CA04203D1012421E000241FE0C4
:104FA0002B4CA04201D102241AE02A4CA04201D18C
:104FB000032415E0284CA04202D1042410E036E07E
:104FC000264CA04201D105240AE0254CA04201D183
:104FD000062405E0234CA04201D1072400E0082468
:104FE000AC403C43B460DAF800409C434D68ED03AC
:104FF00000D51C43CAF80040DBF800409C434D68D4
:10500000AD0300D51C43CBF800400D4D08352C688E
:105010009C434E68F60200D51C432C60084D0C35AD
:105020002C689C434E68B60200D51C432C60521C71
:105030000B6833FA02F47FF44BAF00F015B80000B0
:10504000000401400010024000000140000400483C
:1050500000080048000C00480010004800140048F8
:1050600000180048001C004818BCBDE8E08F4269E9
:1050700021EA02030A4043EA024181617047002AA3
:1050800001D08161704781627047000001488068EB
:1050900070470000E4020020024881680278114451
:1050A00081607047E402002070B5054600240F4E71
:1050B0003078002817D04FF47A71B1FBF0F00C492A
:1050C0000968B1FBF0F002F074F908B101240BE0BB
:1050D000102D06D200222946501E00F029F87560D6
:1050E00002E0012400E00124204670BDE40200201B
:1050F0002000002000280DDB00F01F02012191405C
:105100004009800000F1E020C0F88011BFF34F8F0C
:10511000BFF36F8F7047002809DB00F01F020121E9
:1051200091404009800000F1E020C0F80011704774
:10513000F0B40D460D4B1B68C3F30223C3F1070403
:10514000042C00D90424191D072901D2002300E0F2
:10515000DB1E012606FA04F1491E294099409E40B3
:10516000761E16403143F0BC06F0D4BD0CED00E0D5
:105170001749B0F5007F0CD00868C0F34120022821
:1051800005D0086820F4C06040F48060086000200A
:1051900070470868C0F341200128F8D0086820F45F
:1051A000C06040F4007008600A4832220068504332
:1051B000094AB0FBF2F0401C00E0401E4A6952056B
:1051C00001D50028F9D148694005E0D50320704792
:1051D000007000402000002040420F00024841685B
:1051E00041F400714160704700700040024800685F
:1051F00000F4C06070470000007000400248016881
:1052000041F4807101607047007000402DE9F84F53
:105210000446002500272088ED4E000504F1200BF0
:105220000DD5A06ED0B3B0F5800F45D0B0F5000F0E
:1052300037D0B0F5400F00D0012585B32F46208828
:10524000C0040DD5E06E58B3B0F1807F4FD0B0F1FF
:10525000007F41D0B0F1407F00D0012595B32F46AB
:105260002068800363D54FF00008B06DC00009D4FA
:10527000B06D40F08050B065B06D00F0805000908F
:105280004FF00108DFF84CA3DAF8000040F480701A
:10529000CAF80000FFF7FAFE81463FE006E012E0A0
:1052A0001FE0F06840F48030F060C6E70021201D68
:1052B00004F0C6FA0546C0E70021584604F060FB3A
:1052C0000546BAE719E0D6F88800A16E20F4400040
:1052D0000843C6F88800B2E7F06840F48030F06018
:1052E000BCE70021201D04F0ABFA0546B6E700211B
:1052F000584604F045FB0546B0E7D6F88800E16E55
:1053000020F040700843C6F88800A9E7FFF7BEFE0A
:10531000A0EB0900022801D9032503E0DAF8000018
:10532000C005F3D525B12F46B8F1010F38D03BE0C9
:10533000D6F8900000F4407088B1D4F8881081420B
:105340000DD056F8900F20F44070316841F4803150
:105350003160316821F48031316046F89009C0072E
:1053600011D0FFF793FE814641F2883A07E0FFF73C
:105370008DFEA0EB0900504501D9032503E0D6F8C6
:1053800090008007F3D50DB12F46CDE7D6F89000F9
:10539000D4F8881020F440700843C6F89000C3E7A2
:1053A000B06D20F08050B0652078C00707D0D6F8E7
:1053B0008800A16B20F003000843C6F8880020781D
:1053C000800707D5D6F88800E16B20F00C00084371
:1053D000C6F888002078400707D5D6F88800216CE9
:1053E00020F030000843C6F888002078000707D571
:1053F000D6F88800616C20F0C0000843C6F8880029
:105400002078C00607D5D6F88800A16C20F440703B
:105410000843C6F888002078800607D5D6F88800AB
:10542000E16C20F440600843C6F8880020888005BD
:1054300007D5D6F88800216E20F440200843C6F82E
:1054400088002088400507D5D6F88800616E20F4D2
:1054500040100843C6F888002078400607D5D6F8E3
:105460008800216D20F440500843C6F88800207859
:10547000000607D5D6F88800616D20F44040084347
:10548000C6F888002088C00507D5D6F88800A16D29
:1054900020F440300843C6F888002068C00207D5D1
:1054A000D6F89C00E16D20F003000843C6F89C008C
:1054B00020884FF0006580044FF0806817D5D6F83B
:1054C0008800216F20F040600843C6F88800206FF4
:1054D000A84204D1F06840F48010F06007E0404535
:1054E00005D10121201D04F0ABF900B10746206869
:1054F000000317D5D6F88800616F20F0406008439C
:10550000C6F88800606FA84204D1F06840F48010AB
:10551000F06007E0404505D10121201D04F090F91D
:1055200000B107462068400317D5D6F88800A16F60
:1055300020F040600843C6F88800A06FA84204D15C
:10554000F06840F48010F06007E0404505D101218B
:10555000201D04F075F900B10746208840041CD5D1
:10556000D6F88800E16F20F040500843C6F8880064
:10557000E06FB0F1805F03D0B0F1005F07D00CE0C6
:105580000221201D04F05CF938B1074605E0022134
:10559000584604F0F5F900B107462088000408D504
:1055A000D6F88800D4F8801020F080400843C6F870
:1055B00088002068C00307D556F8880FD4F88410F7
:1055C00020F0004008433060384600F005B8000085
:1055D000001002400070004018BCBDE8E08F0000E1
:1055E0002DE9F04704460D46002C17D0DFF8248142
:1055F000D8F8000000F00700A84211D2D8F8000047
:1056000020F007002843C8F80000D8F8000000F098
:105610000700A84204D00120BDE8F0870120FBE785
:1056200020783D4EC00732D06068032807D002289A
:105630000AD070B13168490510D40120ECE7316817
:1056400089010BD40120E7E73168890306D40120E2
:10565000E2E73168890701D40120DDE7B16821F074
:1056600003010143B160FFF711FD074641F288399C
:1056700006E0FFF70BFDC01B484501D90320CBE72F
:10568000B068616800F00C00B0EB810FF1D12078B8
:10569000800705D5B068A16820F0F0000843B0602D
:1056A000D8F8000000F00700A8420ED9D8F8000092
:1056B00020F007002843C8F80000D8F8000000F0E8
:1056C0000700A84201D00120A6E72078400705D5B1
:1056D000B068E16820F4E0600843B060207800071B
:1056E00006D5B068216920F4605040EAC100B0607E
:1056F00000F044F8B168094AC1F30311515C01F0AC
:105700001F01C8400649086006480068BDE8F04728
:10571000FFF7CABC00200240001002406895010853
:1057200020000020E80200200148006870470000C7
:105730002000002000B5FFF7F7FF05498968054AFA
:10574000C1F30221515C01F01F01C84000BD0000FF
:1057500000100240A895010800B5FFF7E5FF0549D4
:105760008968054AC1F3C221515C01F01F01C8409C
:1057700000BD000000100240A895010870B500228D
:105780000020244B996801F00C01DC6804F003044C
:10579000214D6E10002908D00C2901D1012C04D014
:1057A000042913D0082913D013E01A68120704D46F
:1057B000D3F89420C2F3032202E01A68C2F3031262
:1057C000164C54F8222021B9104602E0284600E089
:1057D00030460C2918D1D86800F00300022814D0F4
:1057E000032814D01046D968C1F30211491CDA68A5
:1057F000C2F306224243B2FBF1F0D968C1F3416122
:10580000491C4900B0FBF1F070BD2846EBE730467B
:10581000E9E70000001002400024F4007895010838
:105820002DE9F8430446002C0DD0F74EB06800F087
:105830000C05F06800F003072078C0066AD595B122
:105840000C2D03D004E00120BDE8F883012F0AD01D
:10585000A06900287DD0306840F001003060FFF77B
:1058600015FC80465FE03068800701D5A06938B13B
:10587000206A3168090705D5316801F0F00106E0BA
:105880000120E1E7D6F8941001F47061090988421B
:1058900016D904F003F908B10120D5E7306840F0CB
:1058A000080030603068216A20F0F0000843306062
:1058B0007068E16920F47F4040EA0120706017E0E1
:1058C000306840F0080030603068216A20F0F00055
:1058D000084330607068E16920F47F4040EA0120AD
:1058E00070602DB9206A04F0D9F808B10120ABE747
:1058F000FFF744FFB168C54AC1F30311515C01F0E1
:105900001F01C840C2490860C2480068FFF7CCFBCD
:10591000002899D130E0FFF7B9FBA0EB080002287E
:1059200001D9032090E730688007F4D5306840F053
:10593000080030603068216A20F0F00008433060D1
:10594000706820F47F41E06941EA0020706013E054
:10595000FFE7306820F001003060FFF797FB8046DA
:1059600007E0FFF793FBA0EB0800022801D9032012
:105970006AE730688007F4D42078C0074AD0082D41
:1059800018D00C2D01D1032F14D06068B0F5803FE2
:1059900017D0B0F5A02F19D0306820F480303060D7
:1059A000306820F480203060606820B3FFF76EFB21
:1059B00080461CE0306880032CD5606850BB012015
:1059C00042E7306840F480303060EDE7306840F402
:1059D00080203060306840F480303060E4E7FFF7CA
:1059E00055FBA0EB0800642801D903202CE73068A0
:1059F0008003F4D50EE0FFF749FB804607E0FFF790
:105A000045FBA0EB0800642801D903201CE730689F
:105A10008003F4D42078800742D5042D0DD00C2DBE
:105A200001D1022F09D0E06840B3306840F48070A3
:105A30003060FFF72BFB074615E03068400501D5C5
:105A4000E06838B17068217C20F0FE4040EA0160D7
:105A5000706025E00120F7E6FFF718FBC01B022865
:105A600001D90320F0E630684005F5D57068217C47
:105A700020F0FE4040EA0160706011E0306820F4E0
:105A800080703060FFF702FB074606E0FFF7FEFA82
:105A9000C01B022801D90320D6E630684005F5D4A2
:105AA000207800072CD56069A8B1D6F8940040F0A2
:105AB0000100C6F89400FFF7E9FA074606E0FFF791
:105AC000E5FAC01B022801D90320BDE6D6F89400F0
:105AD0008007F4D514E0D6F8940020F00100C6F851
